:0400000030EF00F0ED
:100008004082F3CF0FF0F4CF10F09EB29DA21ED025
:100018009E92000193059411D8A418D0F30E972549
:10002800016EFF0E9821026E000E046E310E036EF3
:100038009CEC06F001C007F002C008F0000E0A6E42
:10004800640E096EF2EC03F00750BE6E10C0F4FFA8
:100058000FC0F3FF40921100A5EF04F080A003D079
:100068002B6A2B2A01D02B6A2B500001916F926BBF
:1000780080A203D02B6A2B2A01D02B6A2B500001B7
:100088008F6F906B80A403D02B6A2B2A01D02B6A28
:100098002B5000018D6F8E6B80A603D02B6A2B2A04
:1000A80001D02B6A2B5000018B6F8C6B97C036F0F8
:1000B80098C037F095C034F096C035F09151921140
:1000C800D8B41ED0060E2B6E300EE82EFED72B2E7F
:1000D800FCD700D0000196BF09D0965104E1090E63
:1000E800955DD8A003D09507D8A0960797C083F050
:1000F80098C084F095C085F096C086F004EC03F0B3
:1001080000018B518C11D8B41DD0060E2B6E300E09
:10011800E82EFED72B2EFCD700D0000196BF06D0C4
:10012800965106E13A0E955DD8B002D0954B962BC4
:1001380097C083F098C084F095C085F096C086F08B
:1001480004EC03F000018F519011D8B41ED0060EB4
:100158002B6E300EE82EFED72B2EFCD700D00001D8
:1001680098BF09D0985104E10E0E975DD8A003D02E
:100178009707D8A0980797C083F098C084F095C0D7
:1001880085F096C086F004EC03F000018D518E11C5
:10019800D8B41DD0060E2B6E300EE82EFED72B2EAF
:1001A800FCD700D0000198BF06D0985106E1710E27
:1001B800975DD8B002D0974B982B97C083F098C022
:1001C80084F095C085F096C086F004EC03F0410EEB
:1001D8002B6EEE0EE82EFED72B2EFCD700D0120089
:1001E8000001806F27AE16D025C01CF02D0E1D6EA5
:1001F8000001805134EC04F0252A26C011F027C0F4
:1002080012F0FF0E146E136889EC06F011C026F088
:1002180012C027F0000E0001826F000E816F265079
:100228002710D8A426D0300E606F814B822B21D0A6
:100238008151600FD96EDA6A26C011F027C012F01A
:10024800000E146E0A0E136E6DEC04F01150300F90
:10025800DF6E814B822B26C011F027C012F0000EF2
:10026800146E0A0E136EB0EC03F011C026F012C023
:1002780027F027BE21D02750DBE12604D8A01CD0C8
:10028800D7D78107D8A082078151600FD96EDA6A63
:10029800DF50286E2850266E276A25C01CF026C01D
:1002A8001DF0805134EC04F0252A7F0E256404D01B
:1002B8000001802B000E256E000182BF12008251C2
:1002C800E0E18105D8A01200DCD700019751365C27
:1002D8003750800A2B6E9851800A2B58D8B01AD004
:1002E8000D0E36183710D8A40AD036C020F03B0EB1
:1002F80007EC05F036C020F03D0E07EC05F097C07E
:1003080020F03B0E07EC05F097C020F03D0E07ECFF
:1003180005F01DD036C020F03B0ED6EC04F036C0F8
:1003280020F03D0ED6EC04F0000198BF10D0985193
:1003380004E10E0E975DD8A00AD097C020F03B0EBE
:1003480007EC05F097C020F03D0E07EC05F034509F
:100358000001955D9651800A2B6E3550800A2B5806
:10036800D8A096BF11D0965104E1080E955DD8A08B
:100378000BD07C0E206E345007EC05F07E0E206EFC
:10038800345007EC05F012007C0E206E9551D6EC27
:1003980004F07E0E206E00019551D6EC04F0120098
:1003A800000E316E0D0E306E11D030C020F03B0EB5
:1003B80007EC05F030C020F03C0E07EC05F030C02B
:1003C80020F03D0E07EC05F0304A312A305000018C
:1003D800975D9851800A2B6E3150800A2B58D8B0FF
:1003E800E4D797C02EF098C02FF02FBE06D02F501C
:1003F8000CE1720E2E5CD8B008D02EC020F03C0E56
:1004080007EC05F02E4A2F2AF0D795C032F096C097
:1004180033F033BE06D0335016E13B0E325CD8B011
:1004280012D07C0E206E325007EC05F07D0E206E47
:10043800325007EC05F07E0E206E325007EC05F0C6
:10044800324A332AE6D7000E2D6E090E2C6E07D0DD
:100458007D0E206E2C5007EC05F02C4A2D2A2C50CE
:100468000001955D9651800A2B6E2D50800A2B58FD
:10047800D8A01200EDD73D0E166E0E0E176E040EA4
:1004880097EC05F03E0E166E1F0E176E040E97ECD5
:1004980005F03F0E166E1F0E176E040E97EC05F052
:1004A800400E166E1F0E176E040E97EC05F0410EE7
:1004B800166E0E0E176E040E97EC05F0000198BF2D
:1004C80006D0985120E13F0E975DD8B01CD096BF5A
:1004D80006D096510AE11F0E955DD8B006D03E0EA3
:1004E800206E210ED6EC04F0120096BF1200965131
:1004F80004E1200E955DD8A012003E0E206E230E5A
:10050800D6EC04F0120096BF06D096510AE11F0EF1
:10051800955DD8B006D0400E206E210ED6EC04F0C2
:10052800120096BF1200965104E1220E955DD8A0E4
:100538001200400E206E230ED6EC04F012005EEC82
:1005480003F097C083F098C084F095C085F096C0FA
:1005580086F004EC03F0D4EC01F0ECEC06F011C0EA
:100568003EF012C03FF03EC011F03FC012F0000E46
:10057800146E050E136E89EC06F011C01CF012C043
:100588001DF0030E1F6E1E68EFEC05F01CC089F00D
:100598001DC08AF0030E1A6E19683EC011F03FC0E4
:1005A80012F0000E146E050E136E89EC06F011C0E1
:1005B80017F012C018F018EC06F017C01CF018C09D
:1005C8001DF0000E1F6E0A0E1E6EEFEC05F01CC02B
:1005D80087F01DC088F097C083F098C084F095C05C
:1005E80085F096C086F004EC03F0000193059411A1
:1005F800D8B432EC00F069EC01F03FEC02F0ADD772
:10060800000E1C6E060E1D6E7F0E1E6E000E68EC30
:1006180005F0010E256EF30E266E7F0E276E000E76
:10062800C5EC05F0050E256EF30E00018325266E38
:10063800FF0E8421276E000EF4EC00F0090E256EE3
:10064800EE0E266E7F0E276E000EC5EC05F00D0E21
:10065800256E89C026F08AC027F0000EF4EC00F061
:100668000E0E256EFD0E266E7F0E276E000EC5EC53
:1006780005F00F0E256E87C026F088C027F0000E03
:10068800F4EC00F093519411D8B40AD0120E256EF0
:10069800E70E266E7F0E276E000EC5EC05F01200E1
:1006A800120E256EF80E266E7F0E276E000EC5EC14
:1006B80005F01200000E0F01386F000E396F000EA2
:1006C8003A6F000E3B6F020E3C6F000E956E000EE7
:1006D800936E030E946E020E966E000E836E000EDD
:1006E800816EFC0E4917310EBB6E780EBA12BA50E5
:1006F800FC0B0209BA6EF28EF28ED08E9D829E920B
:100708009F82BA84010EBE6EBD50F00B0C09BD6EFF
:10071800F28CC250830B1809C26EC292C290C19E5D
:10072800F30EC116FC0EC116C08EC050C70B0809C7
:10073800C06EC050F80B0109C06EC1EC06F0070E80
:100748001C6E000E1D6E7F0E1E6E000E68EC05F00E
:10075800000EDEEC06F01200000E166E14AE06D087
:10076800136C141ED8B0142A010E166E12AE06D0E1
:10077800116C121ED8B0122A010E161A000E186E2D
:10078800000E176E13501410D8B41CD0010E156E3D
:1007980004D0D89013361436152A14AEFAD7D89048
:1007A800173618361350115C14501258D8A005D0BB
:1007B8001350115E1450125A1780D8901432133205
:1007C800152EEDD71650D8B404D0176C181ED8B013
:1007D800182A17C011F018C012F01200000E0C6E83
:1007E8000AAE06D0096C0A1ED8B00A2A010E0C6E91
:1007F80008AE06D0076C081ED8B0082A010E0C1ADD
:10080800000E0E6E000E0D6E09500A10D8B41CD0E2
:10081800010E0B6E04D0D89009360A360B2A0AAEA0
:10082800FAD7D8900D360E360950075C0A5008588A
:10083800D8A005D00950075E0A50085A0D80D890F4
:100848000A3209320B2EEDD70C50D8B404D00D6CF7
:100858000E1ED8B00E2A0DC007F00EC008F0120008
:100868001E6EE00E1D24116E126AFF0E1222000E7B
:10087800146E050E136E89EC06F011C021F012C03B
:1008880022F01C50050DF3CF1CF0000E246E000E54
:10089800236ECD0E2124F66E7D0E2220F76E080001
:1008A800F5501F6E206A1CC016F01FC017F01E50AE
:1008B80097EC05F01C2A214A222A234A242A24BE1E
:1008C800E8D7245005E1050E235CD8B01200E1D723
:1008D8001200000E166E12AE06D0116C121ED8B0A1
:1008E800122A010E166E14AE04D0136C141ED8B062
:1008F800142A13501410D8B418D0010E156E04D051
:10090800D89013361436152A14AEFAD71350115C42
:1009180014501258D8A004D01350115E1450125A13
:10092800D89014321332152EF1D71650D8B404D0FB
:10093800116C121ED8B0122A11C011F012C012F098
:100948001200F40EF66E0D0EF76E000EF86E00EE45
:1009580093F010EE06F00900F5CFEEFFE550E150F8
:10096800FAE1EC0EF66E0D0EF76E000EF86E00EE64
:1009780034F010EE08F00900F5CFEEFFE550E15035
:10098800FAE100EE87F00C0EEE6AE806FDE13F6A38
:100998003E6A3D6A3C6A40904092000EF86E000143
:1009A800A3EF02F0286E28C021F0D8902132D89009
:1009B8002132D89021322150296E2A6A28C021F08C
:1009C800070E2116010E226E000E236E212A03D077
:1009D800D89022362336212EFBD7221C246E231CC6
:1009E800256E20C01DF02950AFEC06F0216E215075
:1009F800266E276A20C016F024502614176E295038
:100A080097EC05F01200286E28C021F0D89021320A
:100A1800D8902132D89021322150296E2A6A28C0D4
:100A280021F0070E2116010E226E000E236E212AD8
:100A380003D0D89022362336212EFBD722C024F0AB
:100A480023C025F020C01DF02950AFEC06F0216E20
:100A58002150266E276A20C016F024502610176EE3
:100A6800295097EC05F01200186E400E166004D05D
:100A7800000E1B6E010E03D0000E1B6E020E1A6EC6
:100A88001AC01CF01750D8B406D01850D0EC06F095
:100A9800165039EC06F01C5071EC06F09568000E03
:100AA800936E1C04D8B48190020E1C18D8B481929D
:100AB8008186818400F0818800F083CF19F08198C5
:100AC8008180818219501200226E22C023F0246A8C
:100AD8001CD01DC025F0266A09D025C016F0000ECE
:100AE800176E235097EC05F0254A262A1E501F6ED4
:100AF800206A25501F5C2050800A216E2650800AEB
:100B08002158D8B0EAD7234A242A1C501F6E206ADD
:100B180023501F5C2050800A216E2450800A2158DF
:100B2800D8A01200D6D7186E400E166004D0000E5A
:100B38001A6E010E03D0000E1A6E020E196E19C03D
:100B48001BF01850D0EC06F0165039EC06F01B508C
:100B580071EC06F0000E936E1B04D8B48190020E5F
:100B68001B18D8B481928196818400F0818800F0A6
:100B780017C083FF000E956E00F0819881808182F6
:100B88001200286E000E2A6E000E296E11D0255014
:100B980029241C6E26C0F6FF27C0F7FF0800F5CFF2
:100BA8001DF0285034EC04F0264A272A294A2A2A1C
:100BB80026C0F6FF27C0F7FF0800F5500A0AD8B488
:100BC800120026C0F6FF27C0F7FF0800F5500009FD
:100BD800D8B41200DCD7000E216E000E206E1E5015
:100BE8001F10D8B41CD0010E226E04D0D8901E3627
:100BF8001F36222A1FAEFAD7D890203621361E502B
:100C08001C5C1F501D58D8A005D01E501C5E1F50DC
:100C18001D5A2080D8901F321E32222EEDD720C0B8
:100C28001CF021C01DF0120019501A10D8B418D0A9
:100C3800010E1B6E04D0D89019361A361B2A1AAE2C
:100C4800FAD71950175C1A501858D8A004D0195060
:100C5800175E1A50185AD8901A3219321B2EF1D72B
:100C680017C017F018C018F01200156E400E156066
:100C78000CD0010E136E1550400956EC06F0020E0A
:100C8800136E400E56EC06F01200010E136E7F0E26
:100C980056EC06F0020E136E1550C00F400956ECC4
:100CA80006F01200146E135071EC06F0000E936EED
:100CB8001304D8B48190020E1318D8B48192819687
:100CC800819400F0818800F014C083FF000E956EB7
:100CD80000F08198818081821200126E9568000E62
:100CE800936E1204D8B48190020E1218D8B481926F
:100CF8008186819400F0818800F083CF11F081987B
:100D080011BEF9D781808182120011501302F3CFEE
:100D180015F0F4CF16F011501402F35016261250A5
:100D28001302F350162615C011F016C012F0120067
:100D380001500302F3CF05F0F4CF06F0015004028E
:100D4800F350062602500302F350062605C001F0B0
:100D580006C002F012001F6E1DC016F0010E176EBD
:100D68001F5038EC05F01DC016F0010E176E1F500D
:100D780038EC05F01E6E1E501200818A010E136EAB
:100D88003F0E56EC06F0020E136E3F0E56EC06F0C0
:100D9800000EDEEC06F01200156E010E136E1550F3
:100DA800B80956EC06F0020E136E1550B80956EC49
:100DB80006F01200156E010E136E1550C00956ECA0
:100DC80006F0020E136E1550C00956EC06F012001C
:100DD800C280C282C2B2FED7C290C3CF11F0C4CFC4
:100DE80012F012001F003F00C17FD87F01003A00B7
:020DF8000D00EC
:107DCC0000000000000000005F000000070007003A
:107DDC00147F147F14242A7F2A122313086462361A
:107DEC00495522500005030000001C2241000041AF
:107DFC00221C00082A1C2A0808083E0808005030DB
:107E0C0000000808080808003030000020100804A2
:107E1C00023E5149453E00427F4000426151494675
:107E2C002141454B311814127F1027454545393CEB
:107E3C004A49493001710905033649494936064911
:107E4C0049291E0036360000005636000000081482
:107E5C002241141414141441221408000201510973
:107E6C0006324979413E7E1111117E7F49494936CE
:107E7C003E414141227F4141221C7F494949417F7A
:107E8C00090901013E414151327F0808087F004138
:107E9C007F41002040413F017F081422417F404038
:107EAC0040407F0204027F7F0408107F3E41414125
:107EBC003E7F090909063E4151215E7F0919294679
:107ECC00464949493101017F01013F4040403F1F74
:107EDC002040201F7F2018207F63140814630304A4
:107EEC00780403615149454300007F414102040875
:107EFC00102041417F000004020102044040404038
:107F0C0040000102040020545454787F4844443803
:107F1C003844444420384444487F38545454180856
:107F2C007E090102081454543C7F08040478004470
:107F3C007D40002040443D00007F10284400417FDC
:107F4C0040007C041804787C0804047838444444C9
:107F5C00387C14141408081414187C7C08040408C5
:107F6C004854545420043F4440203C4040207C1C46
:107F7C002040201C3C4030403C44281028440C50ED
:107F8C0050503C4464544C44000836410000007F7F
:107F9C000000004136080008082A1C08081C2A08A2
:107FAC00080801AA01080038383800000000000059
:107FBC0000000000004A6F736570204D6172746997
:107FCC006E657A204761726369610A004C352049FD
:107FDC006E646976696475616C0A004D616E7561D9
:107FEC006C006164633D0070776D3D004175746F8A
:047FFC00002C000055
:020000040030CA
:0E000000FF021900FFA580FF0FC00FE00F40A8
:00000001FF
